{
    "_format": "hh-sol-artifact-1",
    "contractName": "MccmNFT",
    "sourceName": "contracts/MccmNFT.sol",
    "abi": [
        {
            "inputs": [],
            "stateMutability": "nonpayable",
            "type": "constructor"
        },
        {
            "anonymous": false,
            "inputs": [
                {
                    "indexed": true,
                    "internalType": "address",
                    "name": "owner",
                    "type": "address"
                },
                {
                    "indexed": true,
                    "internalType": "address",
                    "name": "approved",
                    "type": "address"
                },
                {
                    "indexed": true,
                    "internalType": "uint256",
                    "name": "tokenId",
                    "type": "uint256"
                }
            ],
            "name": "Approval",
            "type": "event"
        },
        {
            "anonymous": false,
            "inputs": [
                {
                    "indexed": true,
                    "internalType": "address",
                    "name": "owner",
                    "type": "address"
                },
                {
                    "indexed": true,
                    "internalType": "address",
                    "name": "operator",
                    "type": "address"
                },
                {
                    "indexed": false,
                    "internalType": "bool",
                    "name": "approved",
                    "type": "bool"
                }
            ],
            "name": "ApprovalForAll",
            "type": "event"
        },
        {
            "anonymous": false,
            "inputs": [
                {
                    "indexed": true,
                    "internalType": "address",
                    "name": "previousOwner",
                    "type": "address"
                },
                {
                    "indexed": true,
                    "internalType": "address",
                    "name": "newOwner",
                    "type": "address"
                }
            ],
            "name": "OwnershipTransferred",
            "type": "event"
        },
        {
            "anonymous": false,
            "inputs": [
                {
                    "indexed": true,
                    "internalType": "address",
                    "name": "from",
                    "type": "address"
                },
                {
                    "indexed": true,
                    "internalType": "address",
                    "name": "to",
                    "type": "address"
                },
                {
                    "indexed": true,
                    "internalType": "uint256",
                    "name": "tokenId",
                    "type": "uint256"
                }
            ],
            "name": "Transfer",
            "type": "event"
        },
        {
            "inputs": [],
            "name": "ContractBalance",
            "outputs": [
                {
                    "internalType": "uint256",
                    "name": "",
                    "type": "uint256"
                }
            ],
            "stateMutability": "view",
            "type": "function"
        },
        {
            "inputs": [],
            "name": "MAX_SUPPLY",
            "outputs": [
                {
                    "internalType": "uint256",
                    "name": "",
                    "type": "uint256"
                }
            ],
            "stateMutability": "view",
            "type": "function"
        },
        {
            "inputs": [],
            "name": "_isSaleActive",
            "outputs": [
                {
                    "internalType": "bool",
                    "name": "",
                    "type": "bool"
                }
            ],
            "stateMutability": "view",
            "type": "function"
        },
        {
            "inputs": [],
            "name": "_revealed",
            "outputs": [
                {
                    "internalType": "bool",
                    "name": "",
                    "type": "bool"
                }
            ],
            "stateMutability": "view",
            "type": "function"
        },
        {
            "inputs": [
                {
                    "internalType": "address",
                    "name": "",
                    "type": "address"
                }
            ],
            "name": "addressMintMccmBalance",
            "outputs": [
                {
                    "internalType": "uint256",
                    "name": "",
                    "type": "uint256"
                }
            ],
            "stateMutability": "view",
            "type": "function"
        },
        {
            "inputs": [
                {
                    "internalType": "address",
                    "name": "to",
                    "type": "address"
                },
                {
                    "internalType": "uint256",
                    "name": "tokenId",
                    "type": "uint256"
                }
            ],
            "name": "approve",
            "outputs": [],
            "stateMutability": "nonpayable",
            "type": "function"
        },
        {
            "inputs": [
                {
                    "internalType": "address",
                    "name": "owner",
                    "type": "address"
                }
            ],
            "name": "balanceOf",
            "outputs": [
                {
                    "internalType": "uint256",
                    "name": "",
                    "type": "uint256"
                }
            ],
            "stateMutability": "view",
            "type": "function"
        },
        {
            "inputs": [],
            "name": "baseExtension",
            "outputs": [
                {
                    "internalType": "string",
                    "name": "",
                    "type": "string"
                }
            ],
            "stateMutability": "view",
            "type": "function"
        },
        {
            "inputs": [],
            "name": "flipReveal",
            "outputs": [],
            "stateMutability": "nonpayable",
            "type": "function"
        },
        {
            "inputs": [],
            "name": "flipSaleActive",
            "outputs": [],
            "stateMutability": "nonpayable",
            "type": "function"
        },
        {
            "inputs": [
                {
                    "internalType": "uint256",
                    "name": "tokenId",
                    "type": "uint256"
                }
            ],
            "name": "getApproved",
            "outputs": [
                {
                    "internalType": "address",
                    "name": "",
                    "type": "address"
                }
            ],
            "stateMutability": "view",
            "type": "function"
        },
        {
            "inputs": [
                {
                    "internalType": "address",
                    "name": "owner",
                    "type": "address"
                },
                {
                    "internalType": "address",
                    "name": "operator",
                    "type": "address"
                }
            ],
            "name": "isApprovedForAll",
            "outputs": [
                {
                    "internalType": "bool",
                    "name": "",
                    "type": "bool"
                }
            ],
            "stateMutability": "view",
            "type": "function"
        },
        {
            "inputs": [],
            "name": "maxMint",
            "outputs": [
                {
                    "internalType": "uint256",
                    "name": "",
                    "type": "uint256"
                }
            ],
            "stateMutability": "view",
            "type": "function"
        },
        {
            "inputs": [
                {
                    "internalType": "uint256",
                    "name": "tokenQuantity",
                    "type": "uint256"
                }
            ],
            "name": "mintMccmMeta",
            "outputs": [],
            "stateMutability": "payable",
            "type": "function"
        },
        {
            "inputs": [],
            "name": "mintPrice",
            "outputs": [
                {
                    "internalType": "uint256",
                    "name": "",
                    "type": "uint256"
                }
            ],
            "stateMutability": "view",
            "type": "function"
        },
        {
            "inputs": [],
            "name": "name",
            "outputs": [
                {
                    "internalType": "string",
                    "name": "",
                    "type": "string"
                }
            ],
            "stateMutability": "view",
            "type": "function"
        },
        {
            "inputs": [],
            "name": "notRevealedUri",
            "outputs": [
                {
                    "internalType": "string",
                    "name": "",
                    "type": "string"
                }
            ],
            "stateMutability": "view",
            "type": "function"
        },
        {
            "inputs": [],
            "name": "owner",
            "outputs": [
                {
                    "internalType": "address",
                    "name": "",
                    "type": "address"
                }
            ],
            "stateMutability": "view",
            "type": "function"
        },
        {
            "inputs": [
                {
                    "internalType": "uint256",
                    "name": "tokenId",
                    "type": "uint256"
                }
            ],
            "name": "ownerOf",
            "outputs": [
                {
                    "internalType": "address",
                    "name": "",
                    "type": "address"
                }
            ],
            "stateMutability": "view",
            "type": "function"
        },
        {
            "inputs": [],
            "name": "renounceOwnership",
            "outputs": [],
            "stateMutability": "nonpayable",
            "type": "function"
        },
        {
            "inputs": [
                {
                    "internalType": "address",
                    "name": "from",
                    "type": "address"
                },
                {
                    "internalType": "address",
                    "name": "to",
                    "type": "address"
                },
                {
                    "internalType": "uint256",
                    "name": "tokenId",
                    "type": "uint256"
                }
            ],
            "name": "safeTransferFrom",
            "outputs": [],
            "stateMutability": "nonpayable",
            "type": "function"
        },
        {
            "inputs": [
                {
                    "internalType": "address",
                    "name": "from",
                    "type": "address"
                },
                {
                    "internalType": "address",
                    "name": "to",
                    "type": "address"
                },
                {
                    "internalType": "uint256",
                    "name": "tokenId",
                    "type": "uint256"
                },
                {
                    "internalType": "bytes",
                    "name": "data",
                    "type": "bytes"
                }
            ],
            "name": "safeTransferFrom",
            "outputs": [],
            "stateMutability": "nonpayable",
            "type": "function"
        },
        {
            "inputs": [
                {
                    "internalType": "address",
                    "name": "operator",
                    "type": "address"
                },
                {
                    "internalType": "bool",
                    "name": "approved",
                    "type": "bool"
                }
            ],
            "name": "setApprovalForAll",
            "outputs": [],
            "stateMutability": "nonpayable",
            "type": "function"
        },
        {
            "inputs": [
                {
                    "internalType": "string",
                    "name": "_newBaseExtension",
                    "type": "string"
                }
            ],
            "name": "setBaseExtension",
            "outputs": [],
            "stateMutability": "nonpayable",
            "type": "function"
        },
        {
            "inputs": [
                {
                    "internalType": "string",
                    "name": "_newBaseURI",
                    "type": "string"
                }
            ],
            "name": "setBaseURI",
            "outputs": [],
            "stateMutability": "nonpayable",
            "type": "function"
        },
        {
            "inputs": [
                {
                    "internalType": "uint256",
                    "name": "_maxMint",
                    "type": "uint256"
                }
            ],
            "name": "setMaxMint",
            "outputs": [],
            "stateMutability": "nonpayable",
            "type": "function"
        },
        {
            "inputs": [
                {
                    "internalType": "uint256",
                    "name": "_mintPrice",
                    "type": "uint256"
                }
            ],
            "name": "setMintPrice",
            "outputs": [],
            "stateMutability": "nonpayable",
            "type": "function"
        },
        {
            "inputs": [
                {
                    "internalType": "string",
                    "name": "_notRevealedURI",
                    "type": "string"
                }
            ],
            "name": "setNotRevealedURI",
            "outputs": [],
            "stateMutability": "nonpayable",
            "type": "function"
        },
        {
            "inputs": [
                {
                    "internalType": "bytes4",
                    "name": "interfaceId",
                    "type": "bytes4"
                }
            ],
            "name": "supportsInterface",
            "outputs": [
                {
                    "internalType": "bool",
                    "name": "",
                    "type": "bool"
                }
            ],
            "stateMutability": "view",
            "type": "function"
        },
        {
            "inputs": [],
            "name": "symbol",
            "outputs": [
                {
                    "internalType": "string",
                    "name": "",
                    "type": "string"
                }
            ],
            "stateMutability": "view",
            "type": "function"
        },
        {
            "inputs": [
                {
                    "internalType": "uint256",
                    "name": "index",
                    "type": "uint256"
                }
            ],
            "name": "tokenByIndex",
            "outputs": [
                {
                    "internalType": "uint256",
                    "name": "",
                    "type": "uint256"
                }
            ],
            "stateMutability": "view",
            "type": "function"
        },
        {
            "inputs": [
                {
                    "internalType": "address",
                    "name": "owner",
                    "type": "address"
                },
                {
                    "internalType": "uint256",
                    "name": "index",
                    "type": "uint256"
                }
            ],
            "name": "tokenOfOwnerByIndex",
            "outputs": [
                {
                    "internalType": "uint256",
                    "name": "",
                    "type": "uint256"
                }
            ],
            "stateMutability": "view",
            "type": "function"
        },
        {
            "inputs": [
                {
                    "internalType": "uint256",
                    "name": "tokenId",
                    "type": "uint256"
                }
            ],
            "name": "tokenURI",
            "outputs": [
                {
                    "internalType": "string",
                    "name": "",
                    "type": "string"
                }
            ],
            "stateMutability": "view",
            "type": "function"
        },
        {
            "inputs": [],
            "name": "totalSupply",
            "outputs": [
                {
                    "internalType": "uint256",
                    "name": "",
                    "type": "uint256"
                }
            ],
            "stateMutability": "view",
            "type": "function"
        },
        {
            "inputs": [
                {
                    "internalType": "address",
                    "name": "from",
                    "type": "address"
                },
                {
                    "internalType": "address",
                    "name": "to",
                    "type": "address"
                },
                {
                    "internalType": "uint256",
                    "name": "tokenId",
                    "type": "uint256"
                }
            ],
            "name": "transferFrom",
            "outputs": [],
            "stateMutability": "nonpayable",
            "type": "function"
        },
        {
            "inputs": [
                {
                    "internalType": "address",
                    "name": "newOwner",
                    "type": "address"
                }
            ],
            "name": "transferOwnership",
            "outputs": [],
            "stateMutability": "nonpayable",
            "type": "function"
        },
        {
            "inputs": [
                {
                    "internalType": "address",
                    "name": "",
                    "type": "address"
                }
            ],
            "name": "walletMints",
            "outputs": [
                {
                    "internalType": "uint256",
                    "name": "",
                    "type": "uint256"
                }
            ],
            "stateMutability": "view",
            "type": "function"
        },
        {
            "inputs": [
                {
                    "internalType": "address",
                    "name": "to",
                    "type": "address"
                }
            ],
            "name": "withdraw",
            "outputs": [],
            "stateMutability": "nonpayable",
            "type": "function"
        },
        {
            "inputs": [],
            "name": "withdrawWallet",
            "outputs": [
                {
                    "internalType": "address payable",
                    "name": "",
                    "type": "address"
                }
            ],
            "stateMutability": "view",
            "type": "function"
        }
    ],
    "bytecode": "0x60806040526000600c60006101000a81548160ff0219169083151502179055506000600c60016101000a81548160ff021916908315150217905550660aa87bee538000600d55610190600e556040518060400160405280600581526020017f2e6a736f6e000000000000000000000000000000000000000000000000000000815250601190805190602001906200009892919062000243565b50348015620000a657600080fd5b506040518060400160405280600981526020017f4d6f6f6d20636c756200000000000000000000000000000000000000000000008152506040518060400160405280600281526020017f4d4300000000000000000000000000000000000000000000000000000000000081525081600090805190602001906200012b92919062000243565b5080600190805190602001906200014492919062000243565b505050620001676200015b6200017560201b60201c565b6200017d60201b60201c565b6001600b8190555062000357565b600033905090565b6000600a60009054906101000a900473ffffffffffffffffffffffffffffffffffffffff16905081600a60006101000a81548173ffffffffffffffffffffffffffffffffffffffff021916908373ffffffffffffffffffffffffffffffffffffffff1602179055508173ffffffffffffffffffffffffffffffffffffffff168173ffffffffffffffffffffffffffffffffffffffff167f8be0079c531659141344cd1fd0a4f28419497f9722a3daafe3b4186f6b6457e060405160405180910390a35050565b828054620002519062000322565b90600052602060002090601f016020900481019282620002755760008555620002c1565b82601f106200029057805160ff1916838001178555620002c1565b82800160010185558215620002c1579182015b82811115620002c0578251825591602001919060010190620002a3565b5b509050620002d09190620002d4565b5090565b5b80821115620002ef576000816000905550600101620002d5565b5090565b7f4e487b7100000000000000000000000000000000000000000000000000000000600052602260045260246000fd5b600060028204905060018216806200033b57607f821691505b602082108103620003515762000350620002f3565b5b50919050565b61437280620003676000396000f3fe6080604052600436106102305760003560e01c80636ebeac851161012e578063c6682862116100ab578063e985e9c51161006f578063e985e9c51461081e578063f0293fd31461085b578063f2c4ce1e14610898578063f2fde38b146108c1578063f4a0a528146108ea57610230565b8063c66828621461075a578063c87b56dd14610785578063d9886d3c146107c2578063da3ef23f146107de578063de8b51e11461080757610230565b806385d178f4116100f257806385d178f4146106875780638da5cb5b146106b257806395d89b41146106dd578063a22cb46514610708578063b88d4fde1461073157610230565b80636ebeac85146105b25780637080d6fc146105dd57806370a0823114610608578063715018a6146106455780637501f7411461065c57610230565b80633a915d20116101bc57806351cff8d91161018057806351cff8d9146104cf578063547520fe146104f857806355f804b3146105215780636352211e1461054a5780636817c76c1461058757610230565b80633a915d20146103ea5780633b668059146104275780633b84d9c61461045257806342842e0e146104695780634f6ccce71461049257610230565b8063095ea7b311610203578063095ea7b31461030557806318160ddd1461032e57806323b872dd146103595780632f745c591461038257806332cb6b0c146103bf57610230565b806301ffc9a71461023557806306fdde0314610272578063081812fc1461029d578063081c8c44146102da575b600080fd5b34801561024157600080fd5b5061025c60048036038101906102579190612cfd565b610913565b6040516102699190612d45565b60405180910390f35b34801561027e57600080fd5b5061028761098d565b6040516102949190612df9565b60405180910390f35b3480156102a957600080fd5b506102c460048036038101906102bf9190612e51565b610a1f565b6040516102d19190612ebf565b60405180910390f35b3480156102e657600080fd5b506102ef610a65565b6040516102fc9190612df9565b60405180910390f35b34801561031157600080fd5b5061032c60048036038101906103279190612f06565b610af3565b005b34801561033a57600080fd5b50610343610c0a565b6040516103509190612f55565b60405180910390f35b34801561036557600080fd5b50610380600480360381019061037b9190612f70565b610c17565b005b34801561038e57600080fd5b506103a960048036038101906103a49190612f06565b610c77565b6040516103b69190612f55565b60405180910390f35b3480156103cb57600080fd5b506103d4610d1c565b6040516103e19190612f55565b60405180910390f35b3480156103f657600080fd5b50610411600480360381019061040c9190612fc3565b610d22565b60405161041e9190612f55565b60405180910390f35b34801561043357600080fd5b5061043c610d3a565b6040516104499190612f55565b60405180910390f35b34801561045e57600080fd5b50610467610d47565b005b34801561047557600080fd5b50610490600480360381019061048b9190612f70565b610d7b565b005b34801561049e57600080fd5b506104b960048036038101906104b49190612e51565b610d9b565b6040516104c69190612f55565b60405180910390f35b3480156104db57600080fd5b506104f660048036038101906104f19190612fc3565b610e0c565b005b34801561050457600080fd5b5061051f600480360381019061051a9190612e51565b610eb9565b005b34801561052d57600080fd5b5061054860048036038101906105439190613125565b610ecb565b005b34801561055657600080fd5b50610571600480360381019061056c9190612e51565b610eed565b60405161057e9190612ebf565b60405180910390f35b34801561059357600080fd5b5061059c610f9e565b6040516105a99190612f55565b60405180910390f35b3480156105be57600080fd5b506105c7610fa4565b6040516105d49190612d45565b60405180910390f35b3480156105e957600080fd5b506105f2610fb7565b6040516105ff9190612d45565b60405180910390f35b34801561061457600080fd5b5061062f600480360381019061062a9190612fc3565b610fca565b60405161063c9190612f55565b60405180910390f35b34801561065157600080fd5b5061065a611081565b005b34801561066857600080fd5b50610671611095565b60405161067e9190612f55565b60405180910390f35b34801561069357600080fd5b5061069c61109b565b6040516106a9919061318f565b60405180910390f35b3480156106be57600080fd5b506106c76110c1565b6040516106d49190612ebf565b60405180910390f35b3480156106e957600080fd5b506106f26110eb565b6040516106ff9190612df9565b60405180910390f35b34801561071457600080fd5b5061072f600480360381019061072a91906131d6565b61117d565b005b34801561073d57600080fd5b50610758600480360381019061075391906132b7565b611193565b005b34801561076657600080fd5b5061076f6111f5565b60405161077c9190612df9565b60405180910390f35b34801561079157600080fd5b506107ac60048036038101906107a79190612e51565b611283565b6040516107b99190612df9565b60405180910390f35b6107dc60048036038101906107d79190612e51565b6114a5565b005b3480156107ea57600080fd5b5061080560048036038101906108009190613125565b6116ba565b005b34801561081357600080fd5b5061081c6116dc565b005b34801561082a57600080fd5b506108456004803603810190610840919061333a565b611710565b6040516108529190612d45565b60405180910390f35b34801561086757600080fd5b50610882600480360381019061087d9190612fc3565b6117a4565b60405161088f9190612f55565b60405180910390f35b3480156108a457600080fd5b506108bf60048036038101906108ba9190613125565b6117bc565b005b3480156108cd57600080fd5b506108e860048036038101906108e39190612fc3565b6117de565b005b3480156108f657600080fd5b50610911600480360381019061090c9190612e51565b611861565b005b60007f780e9d63000000000000000000000000000000000000000000000000000000007bffffffffffffffffffffffffffffffffffffffffffffffffffffffff1916827bffffffffffffffffffffffffffffffffffffffffffffffffffffffff19161480610986575061098582611873565b5b9050919050565b60606000805461099c906133a9565b80601f01602080910402602001604051908101604052809291908181526020018280546109c8906133a9565b8015610a155780601f106109ea57610100808354040283529160200191610a15565b820191906000526020600020905b8154815290600101906020018083116109f857829003601f168201915b5050505050905090565b6000610a2a82611955565b6004600083815260200190815260200160002060009054906101000a900473ffffffffffffffffffffffffffffffffffffffff169050919050565b60108054610a72906133a9565b80601f0160208091040260200160405190810160405280929190818152602001828054610a9e906133a9565b8015610aeb5780601f10610ac057610100808354040283529160200191610aeb565b820191906000526020600020905b815481529060010190602001808311610ace57829003601f168201915b505050505081565b6000610afe82610eed565b90508073ffffffffffffffffffffffffffffffffffffffff168373ffffffffffffffffffffffffffffffffffffffff1603610b6e576040517f08c379a0000000000000000000000000000000000000000000000000000000008152600401610b659061344c565b60405180910390fd5b8073ffffffffffffffffffffffffffffffffffffffff16610b8d6119a0565b73ffffffffffffffffffffffffffffffffffffffff161480610bbc5750610bbb81610bb66119a0565b611710565b5b610bfb576040517f08c379a0000000000000000000000000000000000000000000000000000000008152600401610bf2906134de565b60405180910390fd5b610c0583836119a8565b505050565b6000600880549050905090565b610c28610c226119a0565b82611a61565b610c67576040517f08c379a0000000000000000000000000000000000000000000000000000000008152600401610c5e90613570565b60405180910390fd5b610c72838383611af6565b505050565b6000610c8283610fca565b8210610cc3576040517f08c379a0000000000000000000000000000000000000000000000000000000008152600401610cba90613602565b60405180910390fd5b600660008473ffffffffffffffffffffffffffffffffffffffff1673ffffffffffffffffffffffffffffffffffffffff168152602001908152602001600020600083815260200190815260200160002054905092915050565b611a0a81565b60156020528060005260406000206000915090505481565b6000804790508091505090565b610d4f611d5c565b600c60019054906101000a900460ff1615600c60016101000a81548160ff021916908315150217905550565b610d9683838360405180602001604052806000815250611193565b505050565b6000610da5610c0a565b8210610de6576040517f08c379a0000000000000000000000000000000000000000000000000000000008152600401610ddd90613694565b60405180910390fd5b60088281548110610dfa57610df96136b4565b5b90600052602060002001549050919050565b610e14611d5c565b6002600b5403610e59576040517f08c379a0000000000000000000000000000000000000000000000000000000008152600401610e509061372f565b60405180910390fd5b6002600b8190555060004790508173ffffffffffffffffffffffffffffffffffffffff166108fc829081150290604051600060405180830381858888f19350505050158015610eac573d6000803e3d6000fd5b50506001600b8190555050565b610ec1611d5c565b80600e8190555050565b610ed3611d5c565b80600f9080519060200190610ee9929190612bee565b5050565b6000806002600084815260200190815260200160002060009054906101000a900473ffffffffffffffffffffffffffffffffffffffff169050600073ffffffffffffffffffffffffffffffffffffffff168173ffffffffffffffffffffffffffffffffffffffff1603610f95576040517f08c379a0000000000000000000000000000000000000000000000000000000008152600401610f8c9061379b565b60405180910390fd5b80915050919050565b600d5481565b600c60019054906101000a900460ff1681565b600c60009054906101000a900460ff1681565b60008073ffffffffffffffffffffffffffffffffffffffff168273ffffffffffffffffffffffffffffffffffffffff160361103a576040517f08c379a00000000000000000000000000000000000000000000000000000000081526004016110319061382d565b60405180910390fd5b600360008373ffffffffffffffffffffffffffffffffffffffff1673ffffffffffffffffffffffffffffffffffffffff168152602001908152602001600020549050919050565b611089611d5c565b6110936000611dda565b565b600e5481565b601260009054906101000a900473ffffffffffffffffffffffffffffffffffffffff1681565b6000600a60009054906101000a900473ffffffffffffffffffffffffffffffffffffffff16905090565b6060600180546110fa906133a9565b80601f0160208091040260200160405190810160405280929190818152602001828054611126906133a9565b80156111735780601f1061114857610100808354040283529160200191611173565b820191906000526020600020905b81548152906001019060200180831161115657829003601f168201915b5050505050905090565b61118f6111886119a0565b8383611ea0565b5050565b6111a461119e6119a0565b83611a61565b6111e3576040517f08c379a00000000000000000000000000000000000000000000000000000000081526004016111da90613570565b60405180910390fd5b6111ef8484848461200c565b50505050565b60118054611202906133a9565b80601f016020809104026020016040519081016040528092919081815260200182805461122e906133a9565b801561127b5780601f106112505761010080835404028352916020019161127b565b820191906000526020600020905b81548152906001019060200180831161125e57829003601f168201915b505050505081565b606061128e82612068565b6112cd576040517f08c379a00000000000000000000000000000000000000000000000000000000081526004016112c4906138bf565b60405180910390fd5b60001515600c60019054906101000a900460ff1615150361137a57601080546112f5906133a9565b80601f0160208091040260200160405190810160405280929190818152602001828054611321906133a9565b801561136e5780601f106113435761010080835404028352916020019161136e565b820191906000526020600020905b81548152906001019060200180831161135157829003601f168201915b505050505090506114a0565b600060146000848152602001908152602001600020805461139a906133a9565b80601f01602080910402602001604051908101604052809291908181526020018280546113c6906133a9565b80156114135780601f106113e857610100808354040283529160200191611413565b820191906000526020600020905b8154815290600101906020018083116113f657829003601f168201915b5050505050905060006114246120d4565b905060008151036114395781925050506114a0565b60008251111561146e57808260405160200161145692919061391b565b604051602081830303815290604052925050506114a0565b8061147885612166565b601160405160200161148c939291906139d3565b604051602081830303815290604052925050505b919050565b6002600b54036114ea576040517f08c379a00000000000000000000000000000000000000000000000000000000081526004016114e19061372f565b60405180910390fd5b6002600b819055503373ffffffffffffffffffffffffffffffffffffffff163273ffffffffffffffffffffffffffffffffffffffff1614611560576040517f08c379a000000000000000000000000000000000000000000000000000000000815260040161155790613a50565b60405180910390fd5b611a0a8161156c610c0a565b6115769190613a9f565b11156115b7576040517f08c379a00000000000000000000000000000000000000000000000000000000081526004016115ae90613b41565b60405180910390fd5b600c60009054906101000a900460ff16611606576040517f08c379a00000000000000000000000000000000000000000000000000000000081526004016115fd90613bad565b60405180910390fd5b6000811180156116185750600e548111155b611657576040517f08c379a000000000000000000000000000000000000000000000000000000000815260040161164e90613c3f565b60405180910390fd5b3481600d546116669190613c5f565b146116a6576040517f08c379a000000000000000000000000000000000000000000000000000000000815260040161169d90613d05565b60405180910390fd5b6116af816122c6565b6001600b8190555050565b6116c2611d5c565b80601190805190602001906116d8929190612bee565b5050565b6116e4611d5c565b600c60009054906101000a900460ff1615600c60006101000a81548160ff021916908315150217905550565b6000600560008473ffffffffffffffffffffffffffffffffffffffff1673ffffffffffffffffffffffffffffffffffffffff16815260200190815260200160002060008373ffffffffffffffffffffffffffffffffffffffff1673ffffffffffffffffffffffffffffffffffffffff16815260200190815260200160002060009054906101000a900460ff16905092915050565b60136020528060005260406000206000915090505481565b6117c4611d5c565b80601090805190602001906117da929190612bee565b5050565b6117e6611d5c565b600073ffffffffffffffffffffffffffffffffffffffff168173ffffffffffffffffffffffffffffffffffffffff1603611855576040517f08c379a000000000000000000000000000000000000000000000000000000000815260040161184c90613d97565b60405180910390fd5b61185e81611dda565b50565b611869611d5c565b80600d8190555050565b60007f80ac58cd000000000000000000000000000000000000000000000000000000007bffffffffffffffffffffffffffffffffffffffffffffffffffffffff1916827bffffffffffffffffffffffffffffffffffffffffffffffffffffffff1916148061193e57507f5b5e139f000000000000000000000000000000000000000000000000000000007bffffffffffffffffffffffffffffffffffffffffffffffffffffffff1916827bffffffffffffffffffffffffffffffffffffffffffffffffffffffff1916145b8061194e575061194d82612366565b5b9050919050565b61195e81612068565b61199d576040517f08c379a00000000000000000000000000000000000000000000000000000000081526004016119949061379b565b60405180910390fd5b50565b600033905090565b816004600083815260200190815260200160002060006101000a81548173ffffffffffffffffffffffffffffffffffffffff021916908373ffffffffffffffffffffffffffffffffffffffff160217905550808273ffffffffffffffffffffffffffffffffffffffff16611a1b83610eed565b73ffffffffffffffffffffffffffffffffffffffff167f8c5be1e5ebec7d5bd14f71427d1e84f3dd0314c0f7b2291e5b200ac8c7c3b92560405160405180910390a45050565b600080611a6d83610eed565b90508073ffffffffffffffffffffffffffffffffffffffff168473ffffffffffffffffffffffffffffffffffffffff161480611aaf5750611aae8185611710565b5b80611aed57508373ffffffffffffffffffffffffffffffffffffffff16611ad584610a1f565b73ffffffffffffffffffffffffffffffffffffffff16145b91505092915050565b8273ffffffffffffffffffffffffffffffffffffffff16611b1682610eed565b73ffffffffffffffffffffffffffffffffffffffff1614611b6c576040517f08c379a0000000000000000000000000000000000000000000000000000000008152600401611b6390613e29565b60405180910390fd5b600073ffffffffffffffffffffffffffffffffffffffff168273ffffffffffffffffffffffffffffffffffffffff1603611bdb576040517f08c379a0000000000000000000000000000000000000000000000000000000008152600401611bd290613ebb565b60405180910390fd5b611be68383836123d0565b611bf16000826119a8565b6001600360008573ffffffffffffffffffffffffffffffffffffffff1673ffffffffffffffffffffffffffffffffffffffff1681526020019081526020016000206000828254611c419190613edb565b925050819055506001600360008473ffffffffffffffffffffffffffffffffffffffff1673ffffffffffffffffffffffffffffffffffffffff1681526020019081526020016000206000828254611c989190613a9f565b92505081905550816002600083815260200190815260200160002060006101000a81548173ffffffffffffffffffffffffffffffffffffffff021916908373ffffffffffffffffffffffffffffffffffffffff160217905550808273ffffffffffffffffffffffffffffffffffffffff168473ffffffffffffffffffffffffffffffffffffffff167fddf252ad1be2c89b69c2b068fc378daa952ba7f163c4a11628f55a4df523b3ef60405160405180910390a4611d578383836124e2565b505050565b611d646119a0565b73ffffffffffffffffffffffffffffffffffffffff16611d826110c1565b73ffffffffffffffffffffffffffffffffffffffff1614611dd8576040517f08c379a0000000000000000000000000000000000000000000000000000000008152600401611dcf90613f5b565b60405180910390fd5b565b6000600a60009054906101000a900473ffffffffffffffffffffffffffffffffffffffff16905081600a60006101000a81548173ffffffffffffffffffffffffffffffffffffffff021916908373ffffffffffffffffffffffffffffffffffffffff1602179055508173ffffffffffffffffffffffffffffffffffffffff168173ffffffffffffffffffffffffffffffffffffffff167f8be0079c531659141344cd1fd0a4f28419497f9722a3daafe3b4186f6b6457e060405160405180910390a35050565b8173ffffffffffffffffffffffffffffffffffffffff168373ffffffffffffffffffffffffffffffffffffffff1603611f0e576040517f08c379a0000000000000000000000000000000000000000000000000000000008152600401611f0590613fc7565b60405180910390fd5b80600560008573ffffffffffffffffffffffffffffffffffffffff1673ffffffffffffffffffffffffffffffffffffffff16815260200190815260200160002060008473ffffffffffffffffffffffffffffffffffffffff1673ffffffffffffffffffffffffffffffffffffffff16815260200190815260200160002060006101000a81548160ff0219169083151502179055508173ffffffffffffffffffffffffffffffffffffffff168373ffffffffffffffffffffffffffffffffffffffff167f17307eab39ab6107e8899845ad3d59bd9653f200f220920489ca2b5937696c3183604051611fff9190612d45565b60405180910390a3505050565b612017848484611af6565b612023848484846124e7565b612062576040517f08c379a000000000000000000000000000000000000000000000000000000000815260040161205990614059565b60405180910390fd5b50505050565b60008073ffffffffffffffffffffffffffffffffffffffff166002600084815260200190815260200160002060009054906101000a900473ffffffffffffffffffffffffffffffffffffffff1673ffffffffffffffffffffffffffffffffffffffff1614159050919050565b6060600f80546120e3906133a9565b80601f016020809104026020016040519081016040528092919081815260200182805461210f906133a9565b801561215c5780601f106121315761010080835404028352916020019161215c565b820191906000526020600020905b81548152906001019060200180831161213f57829003601f168201915b5050505050905090565b6060600082036121ad576040518060400160405280600181526020017f300000000000000000000000000000000000000000000000000000000000000081525090506122c1565b600082905060005b600082146121df5780806121c890614079565b915050600a826121d891906140f0565b91506121b5565b60008167ffffffffffffffff8111156121fb576121fa612ffa565b5b6040519080825280601f01601f19166020018201604052801561222d5781602001600182028036833780820191505090505b5090505b600085146122ba576001826122469190613edb565b9150600a856122559190614121565b60306122619190613a9f565b60f81b818381518110612277576122766136b4565b5b60200101907effffffffffffffffffffffffffffffffffffffffffffffffffffffffffffff1916908160001a905350600a856122b391906140f0565b9450612231565b8093505050505b919050565b60005b818110156123625760006122db610c0a565b9050611a0a6122e8610c0a565b101561234e57601560003373ffffffffffffffffffffffffffffffffffffffff1673ffffffffffffffffffffffffffffffffffffffff168152602001908152602001600020600081548092919061233e90614079565b919050555061234d338261266e565b5b50808061235a90614079565b9150506122c9565b5050565b60007f01ffc9a7000000000000000000000000000000000000000000000000000000007bffffffffffffffffffffffffffffffffffffffffffffffffffffffff1916827bffffffffffffffffffffffffffffffffffffffffffffffffffffffff1916149050919050565b6123db83838361268c565b600073ffffffffffffffffffffffffffffffffffffffff168373ffffffffffffffffffffffffffffffffffffffff160361241d5761241881612691565b61245c565b8173ffffffffffffffffffffffffffffffffffffffff168373ffffffffffffffffffffffffffffffffffffffff161461245b5761245a83826126da565b5b5b600073ffffffffffffffffffffffffffffffffffffffff168273ffffffffffffffffffffffffffffffffffffffff160361249e5761249981612847565b6124dd565b8273ffffffffffffffffffffffffffffffffffffffff168273ffffffffffffffffffffffffffffffffffffffff16146124dc576124db8282612918565b5b5b505050565b505050565b60006125088473ffffffffffffffffffffffffffffffffffffffff16612997565b15612661578373ffffffffffffffffffffffffffffffffffffffff1663150b7a026125316119a0565b8786866040518563ffffffff1660e01b815260040161255394939291906141a7565b6020604051808303816000875af192505050801561258f57506040513d601f19601f8201168201806040525081019061258c9190614208565b60015b612611573d80600081146125bf576040519150601f19603f3d011682016040523d82523d6000602084013e6125c4565b606091505b506000815103612609576040517f08c379a000000000000000000000000000000000000000000000000000000000815260040161260090614059565b60405180910390fd5b805181602001fd5b63150b7a0260e01b7bffffffffffffffffffffffffffffffffffffffffffffffffffffffff1916817bffffffffffffffffffffffffffffffffffffffffffffffffffffffff191614915050612666565b600190505b949350505050565b6126888282604051806020016040528060008152506129ba565b5050565b505050565b6008805490506009600083815260200190815260200160002081905550600881908060018154018082558091505060019003906000526020600020016000909190919091505550565b600060016126e784610fca565b6126f19190613edb565b90506000600760008481526020019081526020016000205490508181146127d6576000600660008673ffffffffffffffffffffffffffffffffffffffff1673ffffffffffffffffffffffffffffffffffffffff168152602001908152602001600020600084815260200190815260200160002054905080600660008773ffffffffffffffffffffffffffffffffffffffff1673ffffffffffffffffffffffffffffffffffffffff168152602001908152602001600020600084815260200190815260200160002081905550816007600083815260200190815260200160002081905550505b6007600084815260200190815260200160002060009055600660008573ffffffffffffffffffffffffffffffffffffffff1673ffffffffffffffffffffffffffffffffffffffff16815260200190815260200160002060008381526020019081526020016000206000905550505050565b6000600160088054905061285b9190613edb565b905060006009600084815260200190815260200160002054905060006008838154811061288b5761288a6136b4565b5b9060005260206000200154905080600883815481106128ad576128ac6136b4565b5b9060005260206000200181905550816009600083815260200190815260200160002081905550600960008581526020019081526020016000206000905560088054806128fc576128fb614235565b5b6001900381819060005260206000200160009055905550505050565b600061292383610fca565b905081600660008573ffffffffffffffffffffffffffffffffffffffff1673ffffffffffffffffffffffffffffffffffffffff168152602001908152602001600020600083815260200190815260200160002081905550806007600084815260200190815260200160002081905550505050565b6000808273ffffffffffffffffffffffffffffffffffffffff163b119050919050565b6129c48383612a15565b6129d160008484846124e7565b612a10576040517f08c379a0000000000000000000000000000000000000000000000000000000008152600401612a0790614059565b60405180910390fd5b505050565b600073ffffffffffffffffffffffffffffffffffffffff168273ffffffffffffffffffffffffffffffffffffffff1603612a84576040517f08c379a0000000000000000000000000000000000000000000000000000000008152600401612a7b906142b0565b60405180910390fd5b612a8d81612068565b15612acd576040517f08c379a0000000000000000000000000000000000000000000000000000000008152600401612ac49061431c565b60405180910390fd5b612ad9600083836123d0565b6001600360008473ffffffffffffffffffffffffffffffffffffffff1673ffffffffffffffffffffffffffffffffffffffff1681526020019081526020016000206000828254612b299190613a9f565b92505081905550816002600083815260200190815260200160002060006101000a81548173ffffffffffffffffffffffffffffffffffffffff021916908373ffffffffffffffffffffffffffffffffffffffff160217905550808273ffffffffffffffffffffffffffffffffffffffff16600073ffffffffffffffffffffffffffffffffffffffff167fddf252ad1be2c89b69c2b068fc378daa952ba7f163c4a11628f55a4df523b3ef60405160405180910390a4612bea600083836124e2565b5050565b828054612bfa906133a9565b90600052602060002090601f016020900481019282612c1c5760008555612c63565b82601f10612c3557805160ff1916838001178555612c63565b82800160010185558215612c63579182015b82811115612c62578251825591602001919060010190612c47565b5b509050612c709190612c74565b5090565b5b80821115612c8d576000816000905550600101612c75565b5090565b6000604051905090565b600080fd5b600080fd5b60007fffffffff0000000000000000000000000000000000000000000000000000000082169050919050565b612cda81612ca5565b8114612ce557600080fd5b50565b600081359050612cf781612cd1565b92915050565b600060208284031215612d1357612d12612c9b565b5b6000612d2184828501612ce8565b91505092915050565b60008115159050919050565b612d3f81612d2a565b82525050565b6000602082019050612d5a6000830184612d36565b92915050565b600081519050919050565b600082825260208201905092915050565b60005b83811015612d9a578082015181840152602081019050612d7f565b83811115612da9576000848401525b50505050565b6000601f19601f8301169050919050565b6000612dcb82612d60565b612dd58185612d6b565b9350612de5818560208601612d7c565b612dee81612daf565b840191505092915050565b60006020820190508181036000830152612e138184612dc0565b905092915050565b6000819050919050565b612e2e81612e1b565b8114612e3957600080fd5b50565b600081359050612e4b81612e25565b92915050565b600060208284031215612e6757612e66612c9b565b5b6000612e7584828501612e3c565b91505092915050565b600073ffffffffffffffffffffffffffffffffffffffff82169050919050565b6000612ea982612e7e565b9050919050565b612eb981612e9e565b82525050565b6000602082019050612ed46000830184612eb0565b92915050565b612ee381612e9e565b8114612eee57600080fd5b50565b600081359050612f0081612eda565b92915050565b60008060408385031215612f1d57612f1c612c9b565b5b6000612f2b85828601612ef1565b9250506020612f3c85828601612e3c565b9150509250929050565b612f4f81612e1b565b82525050565b6000602082019050612f6a6000830184612f46565b92915050565b600080600060608486031215612f8957612f88612c9b565b5b6000612f9786828701612ef1565b9350506020612fa886828701612ef1565b9250506040612fb986828701612e3c565b9150509250925092565b600060208284031215612fd957612fd8612c9b565b5b6000612fe784828501612ef1565b91505092915050565b600080fd5b600080fd5b7f4e487b7100000000000000000000000000000000000000000000000000000000600052604160045260246000fd5b61303282612daf565b810181811067ffffffffffffffff8211171561305157613050612ffa565b5b80604052505050565b6000613064612c91565b90506130708282613029565b919050565b600067ffffffffffffffff8211156130905761308f612ffa565b5b61309982612daf565b9050602081019050919050565b82818337600083830152505050565b60006130c86130c384613075565b61305a565b9050828152602081018484840111156130e4576130e3612ff5565b5b6130ef8482856130a6565b509392505050565b600082601f83011261310c5761310b612ff0565b5b813561311c8482602086016130b5565b91505092915050565b60006020828403121561313b5761313a612c9b565b5b600082013567ffffffffffffffff81111561315957613158612ca0565b5b613165848285016130f7565b91505092915050565b600061317982612e7e565b9050919050565b6131898161316e565b82525050565b60006020820190506131a46000830184613180565b92915050565b6131b381612d2a565b81146131be57600080fd5b50565b6000813590506131d0816131aa565b92915050565b600080604083850312156131ed576131ec612c9b565b5b60006131fb85828601612ef1565b925050602061320c858286016131c1565b9150509250929050565b600067ffffffffffffffff82111561323157613230612ffa565b5b61323a82612daf565b9050602081019050919050565b600061325a61325584613216565b61305a565b90508281526020810184848401111561327657613275612ff5565b5b6132818482856130a6565b509392505050565b600082601f83011261329e5761329d612ff0565b5b81356132ae848260208601613247565b91505092915050565b600080600080608085870312156132d1576132d0612c9b565b5b60006132df87828801612ef1565b94505060206132f087828801612ef1565b935050604061330187828801612e3c565b925050606085013567ffffffffffffffff81111561332257613321612ca0565b5b61332e87828801613289565b91505092959194509250565b6000806040838503121561335157613350612c9b565b5b600061335f85828601612ef1565b925050602061337085828601612ef1565b9150509250929050565b7f4e487b7100000000000000000000000000000000000000000000000000000000600052602260045260246000fd5b600060028204905060018216806133c157607f821691505b6020821081036133d4576133d361337a565b5b50919050565b7f4552433732313a20617070726f76616c20746f2063757272656e74206f776e6560008201527f7200000000000000000000000000000000000000000000000000000000000000602082015250565b6000613436602183612d6b565b9150613441826133da565b604082019050919050565b6000602082019050818103600083015261346581613429565b9050919050565b7f4552433732313a20617070726f76652063616c6c6572206973206e6f7420746f60008201527f6b656e206f776e6572206e6f7220617070726f76656420666f7220616c6c0000602082015250565b60006134c8603e83612d6b565b91506134d38261346c565b604082019050919050565b600060208201905081810360008301526134f7816134bb565b9050919050565b7f4552433732313a2063616c6c6572206973206e6f7420746f6b656e206f776e6560008201527f72206e6f7220617070726f766564000000000000000000000000000000000000602082015250565b600061355a602e83612d6b565b9150613565826134fe565b604082019050919050565b600060208201905081810360008301526135898161354d565b9050919050565b7f455243373231456e756d657261626c653a206f776e657220696e646578206f7560008201527f74206f6620626f756e6473000000000000000000000000000000000000000000602082015250565b60006135ec602b83612d6b565b91506135f782613590565b604082019050919050565b6000602082019050818103600083015261361b816135df565b9050919050565b7f455243373231456e756d657261626c653a20676c6f62616c20696e646578206f60008201527f7574206f6620626f756e64730000000000000000000000000000000000000000602082015250565b600061367e602c83612d6b565b915061368982613622565b604082019050919050565b600060208201905081810360008301526136ad81613671565b9050919050565b7f4e487b7100000000000000000000000000000000000000000000000000000000600052603260045260246000fd5b7f5265656e7472616e637947756172643a207265656e7472616e742063616c6c00600082015250565b6000613719601f83612d6b565b9150613724826136e3565b602082019050919050565b600060208201905081810360008301526137488161370c565b9050919050565b7f4552433732313a20696e76616c696420746f6b656e2049440000000000000000600082015250565b6000613785601883612d6b565b91506137908261374f565b602082019050919050565b600060208201905081810360008301526137b481613778565b9050919050565b7f4552433732313a2061646472657373207a65726f206973206e6f74206120766160008201527f6c6964206f776e65720000000000000000000000000000000000000000000000602082015250565b6000613817602983612d6b565b9150613822826137bb565b604082019050919050565b600060208201905081810360008301526138468161380a565b9050919050565b7f4552433732314d657461646174613a2055524920717565727920666f72206e6f60008201527f6e6578697374656e7420746f6b656e0000000000000000000000000000000000602082015250565b60006138a9602f83612d6b565b91506138b48261384d565b604082019050919050565b600060208201905081810360008301526138d88161389c565b9050919050565b600081905092915050565b60006138f582612d60565b6138ff81856138df565b935061390f818560208601612d7c565b80840191505092915050565b600061392782856138ea565b915061393382846138ea565b91508190509392505050565b60008190508160005260206000209050919050565b60008154613961816133a9565b61396b81866138df565b945060018216600081146139865760018114613997576139ca565b60ff198316865281860193506139ca565b6139a08561393f565b60005b838110156139c2578154818901526001820191506020810190506139a3565b838801955050505b50505092915050565b60006139df82866138ea565b91506139eb82856138ea565b91506139f78284613954565b9150819050949350505050565b7f5468652063616c6c657220697320616e6f7468657220636f6e74726163740000600082015250565b6000613a3a601e83612d6b565b9150613a4582613a04565b602082019050919050565b60006020820190508181036000830152613a6981613a2d565b9050919050565b7f4e487b7100000000000000000000000000000000000000000000000000000000600052601160045260246000fd5b6000613aaa82612e1b565b9150613ab583612e1b565b9250827fffffffffffffffffffffffffffffffffffffffffffffffffffffffffffffffff03821115613aea57613ae9613a70565b5b828201905092915050565b7f536f6c64204f7574210000000000000000000000000000000000000000000000600082015250565b6000613b2b600983612d6b565b9150613b3682613af5565b602082019050919050565b60006020820190508181036000830152613b5a81613b1e565b9050919050565b7f53616c65206d7573742062652061637469766520746f206d696e74204d63636d600082015250565b6000613b97602083612d6b565b9150613ba282613b61565b602082019050919050565b60006020820190508181036000830152613bc681613b8a565b9050919050565b7f457863656564656420746865206d6178696d756d20707572636861736520717560008201527f616e746974790000000000000000000000000000000000000000000000000000602082015250565b6000613c29602683612d6b565b9150613c3482613bcd565b604082019050919050565b60006020820190508181036000830152613c5881613c1c565b9050919050565b6000613c6a82612e1b565b9150613c7583612e1b565b9250817fffffffffffffffffffffffffffffffffffffffffffffffffffffffffffffffff0483118215151615613cae57613cad613a70565b5b828202905092915050565b7f77726f6e67206d696e742076616c756500000000000000000000000000000000600082015250565b6000613cef601083612d6b565b9150613cfa82613cb9565b602082019050919050565b60006020820190508181036000830152613d1e81613ce2565b9050919050565b7f4f776e61626c653a206e6577206f776e657220697320746865207a65726f206160008201527f6464726573730000000000000000000000000000000000000000000000000000602082015250565b6000613d81602683612d6b565b9150613d8c82613d25565b604082019050919050565b60006020820190508181036000830152613db081613d74565b9050919050565b7f4552433732313a207472616e736665722066726f6d20696e636f72726563742060008201527f6f776e6572000000000000000000000000000000000000000000000000000000602082015250565b6000613e13602583612d6b565b9150613e1e82613db7565b604082019050919050565b60006020820190508181036000830152613e4281613e06565b9050919050565b7f4552433732313a207472616e7366657220746f20746865207a65726f2061646460008201527f7265737300000000000000000000000000000000000000000000000000000000602082015250565b6000613ea5602483612d6b565b9150613eb082613e49565b604082019050919050565b60006020820190508181036000830152613ed481613e98565b9050919050565b6000613ee682612e1b565b9150613ef183612e1b565b925082821015613f0457613f03613a70565b5b828203905092915050565b7f4f776e61626c653a2063616c6c6572206973206e6f7420746865206f776e6572600082015250565b6000613f45602083612d6b565b9150613f5082613f0f565b602082019050919050565b60006020820190508181036000830152613f7481613f38565b9050919050565b7f4552433732313a20617070726f766520746f2063616c6c657200000000000000600082015250565b6000613fb1601983612d6b565b9150613fbc82613f7b565b602082019050919050565b60006020820190508181036000830152613fe081613fa4565b9050919050565b7f4552433732313a207472616e7366657220746f206e6f6e20455243373231526560008201527f63656976657220696d706c656d656e7465720000000000000000000000000000602082015250565b6000614043603283612d6b565b915061404e82613fe7565b604082019050919050565b6000602082019050818103600083015261407281614036565b9050919050565b600061408482612e1b565b91507fffffffffffffffffffffffffffffffffffffffffffffffffffffffffffffffff82036140b6576140b5613a70565b5b600182019050919050565b7f4e487b7100000000000000000000000000000000000000000000000000000000600052601260045260246000fd5b60006140fb82612e1b565b915061410683612e1b565b925082614116576141156140c1565b5b828204905092915050565b600061412c82612e1b565b915061413783612e1b565b925082614147576141466140c1565b5b828206905092915050565b600081519050919050565b600082825260208201905092915050565b600061417982614152565b614183818561415d565b9350614193818560208601612d7c565b61419c81612daf565b840191505092915050565b60006080820190506141bc6000830187612eb0565b6141c96020830186612eb0565b6141d66040830185612f46565b81810360608301526141e8818461416e565b905095945050505050565b60008151905061420281612cd1565b92915050565b60006020828403121561421e5761421d612c9b565b5b600061422c848285016141f3565b91505092915050565b7f4e487b7100000000000000000000000000000000000000000000000000000000600052603160045260246000fd5b7f4552433732313a206d696e7420746f20746865207a65726f2061646472657373600082015250565b600061429a602083612d6b565b91506142a582614264565b602082019050919050565b600060208201905081810360008301526142c98161428d565b9050919050565b7f4552433732313a20746f6b656e20616c7265616479206d696e74656400000000600082015250565b6000614306601c83612d6b565b9150614311826142d0565b602082019050919050565b60006020820190508181036000830152614335816142f9565b905091905056fea2646970667358221220136c8e85b433503c61ead5e6c5a9c1c3f85dbf3f50d9edee3695f4addab5da1f64736f6c634300080d0033",
    "linkReferences": {},
    "deployedLinkReferences": {}
}